:020000040800F2
:1000000000000220F101000841020008410200083E
:1000100041020008410200084102000800000000FF
:100020000000000000000000000000004102000885
:1000300041020008000000004102000841020008DF
:100040004102000841020008410200084102000884
:100050004102000841020008410200084102000874
:100060004102000841020008410200084102000864
:100070004102000841020008410200084102000854
:10008000410200084102000841020008000000008F
:100090000000000000000000000000004102000815
:1000A0004102000841020008410200084102000824
:1000B0004102000841020008410200084102000814
:1000C0004102000841020008410200084102000804
:1000D000410200084102000841020008000000003F
:1000E000410200084102000841020008000000002F
:1000F00000000000000000000000000041020008B5
:10010000000000004102000841020008410200080E
:1001100000000000000000000000000000000000DF
:1001200041020008410200084102000841020008A3
:100130004102000800000000000000000000000074
:100140000000000000000000000000004102000864
:100150004102000841020008410200084102000873
:1001600041020008410200080000000000000000F9
:10017000000000000000000000000000000000007F
:100180000000000041020008000000000000000024
:080190004102000841020008D1
:1001980010B5054C237833B9044B13B10448AFF3B9
:1001A80000800123237010BD000000200000000023
:1001B8008C02000808B5034B1BB103490348AFF391
:1001C800008008BD00000000040000208C02000828
:1001D800034AD2F8883043F47003C2F88830704775
:1001E80000ED00E0FEE70000DFF834D00D480E49CE
:1001F8000E4A002302E0D458C4500433C4188C4279
:10020800F9D30B4A0B4C002301E013600432A242DD
:10021800FBD3FFF7DDFF00F011F8FFF7E3FF7047AE
:10022800000002200000002000000020AC020008AE
:10023800000000201C000020FEE7000070B50D4DF6
:100248000D4C641BA4100026A64209D10B4D0C4C82
:1002580000F018F8641BA4100026A64205D170BD52
:1002680055F8043B98470136EEE755F8043B9847A4
:100278000136F2E7A4020008A4020008A40200085C
:10028800A8020008F8B500BFF8BC08BC9E46704735
:0C029800F8B500BFF8BC08BC9E467047DB
:0402A400BD01000890
:0402A80099010008B0
:04000005080001F1FD
:00000001FF
